:020000040800F2
:100000007006002091010008990100089B0100087A
:100010009D0100089F010008A101000800000000E8
:10002000000000000000000000000000A301000824
:10003000A501000800000000A7010008A9010008B0
:10004000AB010008AB010008AB010008AB010008E0
:10005000AB010008AB010008AB010008AB010008D0
:10006000AB010008AB010008AB010008AB010008C0
:10007000AB010008AB010008AB010008AB010008B0
:10008000AB010008AB010008AB010008AB010008A0
:10009000AB010008AB010008AB010008AB01000890
:1000A000AB010008AB010008AB010008AB01000880
:1000B000AB010008AB010008AB010008AB01000870
:1000C000AB010008AB010008AB010008AB01000860
:1000D000AB010008AB010008AB010008AB01000850
:1000E000AB010008AB010008AB010008AB01000840
:1000F000AB01000800F002F800F03AF80AA090E81E
:10010000000C82448344AAF10107DA4501D100F0D2
:100110002FF8AFF2090EBAE80F0013F0010F18BF65
:10012000FB1A43F001031847440600006406000070
:10013000103A24BF78C878C1FAD8520724BF30C813
:1001400030C144BF04680C607047000000230024E5
:1001500000250026103A28BF78C1FBD8520728BFD7
:1001600030C148BF0B6070471FB51FBD10B510BD33
:1001700000F031F81146FFF7F7FF00F0E3FA00F066
:100180004FF803B4FFF7F2FF03BC00F057F800008C
:100190000948804709480047FEE7FEE7FEE7FEE71B
:1001A000FEE7FEE7FEE7FEE7FEE7FEE70448054957
:1001B000054A064B70470000E1060008F5000008FC
:1001C00070000020700600207002002070020020E5
:1001D000704770477047754600F02CF8AE46050032
:1001E0006946534620F00700854618B020B5FFF752
:1001F000DDFFBDE820404FF000064FF000074FF054
:1002000000084FF0000B21F00701AC46ACE8C00934
:10021000ACE8C009ACE8C009ACE8C0098D4670473D
:1002200010B50446AFF300802046BDE81040FFF74C
:10023000A8BF0000004870470C00002001491820AA
:10024000ABBEFEE72600020070470A0482617047D9
:1002500030B5036A91FAA1F4B4FA84F4A5000F242E
:10026000AC40A34391FAA1F4B4FA84F4A40002FAD6
:1002700004F42343036230BD8161704730B50368E5
:1002800091FAA1F4B4FA84F465000324AC40A343CA
:1002900091FAA1F4B4FA84F4640002FA04F423435A
:1002A000036030BD30B5C36891FAA1F4B4FA84F4A8
:1002B00065000324AC40A34391FAA1F4B4FA84F49A
:1002C000640002FA04F42343C36030BD30B5836890
:1002D00091FAA1F4B4FA84F465000324AC40A3437A
:1002E00091FAA1F4B4FA84F4640002FA04F423430A
:1002F000836030BD4FF47A71B0FBF1F2521E4FF0C3
:10030000E0235A6100229A6105221A6100BF7047FA
:1003100002480068C0F34000704700000038024007
:1003200001490860704700000000002008B500F097
:1003300063F84FF480502E49096801432C4A11603C
:10034000114609680140009100BF00BF38202949CB
:10035000096821F038010143264A116000BF0020DE
:100360001146096821F444410143116000BF00BFF8
:100370001146096821F001010143116000BF00BF6F
:100380001146096821F002010143116000BF00BF5E
:100390001146096821F080010143116000BF00BFD0
:1003A0001146096821F400610143116000BF501536
:1003B0001146096821F40071014311601146496832
:1003C00021F0040141EA1041516000BF4FF48270F6
:1003D0001146096821F482710143116000BF00BF1A
:1003E0001046006840F040001146086000BF08BD9C
:1003F000203802400030014008B502202E4909682B
:1004000001432D4A1160114609680140009100BF67
:1004100000BF022208212948FFF730FF05220821EA
:100420002648FFF715FF022208212448FFF74EFF58
:10043000022208212148FFF735FF022210211F4820
:10044000FFF71CFF052210211C48FFF701FF0222C5
:1004500010211A48FFF73AFF022210211748FFF730
:1004600021FF022220211548FFF708FF0522202145
:100470001248FFF7EDFE022220211048FFF726FF69
:10048000022220210D48FFF70DFF0122D1030B4866
:10049000FFF7F4FE022291030848FFF717FF00223E
:1004A0004FF400410548FFF7FDFE4FF400410348BB
:1004B000FFF7E2FE08BD00001C38024000040240C5
:1004C00000BF00BF0549896801F001010029F8D08B
:1004D00000BF0249C968C8B200BF70470030014080
:1004E00000BF00BF05498968C1F340010029F8D069
:1004F000024901F10C02107000BF7047003001404A
:1005000070B50446032010490870201248708C70A2
:10051000FF20C8704FF400410C48FFF796FE0025FD
:1005200008E00949485DFFF7DBFFFFF7C9FF064612
:10053000681CC5B2042DF4DB4FF400410348FFF7FB
:100540009BFE304670BD0000040000200004024005
:1005500070B504460E4602200E49087020124870FD
:100560008C700846C6704FF400410B48FFF76DFED3
:10057000002507E00749485DFFF7B2FFFFF7A0FF3E
:10058000681CC5B2042DF5DB4FF400410248FFF7AB
:1005900073FE70BD040000200004024038B500BFA7
:1005A0004B48006840F004004949086000BF012042
:1005B000096821F001010143454A116000BF0007AD
:1005C000444909680143434A1160114609680140E2
:1005D000009100BF00BF40143F49096821F4C05199
:1005E00001433D4A116000BF00BF00BF3A48406868
:1005F000C0F300100028F8D1FFF78AFE70B900BFE1
:1006000034482438006840F0010032492439086039
:1006100000BF00BFFFF77CFE0128FBD100204FF494
:1006200000210A012B4B1C3B1B6823F47D0440EA8C
:10063000010313431C43274B1C3B1C6000BF00BF3E
:1006400024482438006840F080702249243908602A
:1006500000BF00BF00BF1F4824380068C0F34060DF
:100660000028F7D000201B491C39096821F0F0014F
:100670000143184A1C3A116000BF03201146096863
:1006800021F003010143116000BF00BF00BF11480A
:100690001C38006800F00C000C28F7D100200D4930
:1006A0001C39096821F4E06101430A4A1C3A1160CF
:1006B00000BF00BF1146096821F460510143116079
:1006C00000BF0648FFF716FE0448FFF729FE38BDB5
:1006D000003C024024380240007000400048E8011D
:1006E0001448006840F480701249086011480830CE
:1006F0000068114908400F49083108600D4800683A
:100700000E4908400B4908600846006820F4802024
:10071000086008480830006820F47D000549083169
:1007200008600020091D08604FF00060044908605F
:1007300070470000003802400CC0FF88FEFFFEEE4C
:1007400008ED00E0FFF72AFFFFF7F0FD45214FF22B
:10075000F000FFF7FDFE4FF2F000FFF7D1FE024977
:10076000087000BFFEE70000080000208C070008AA
:10077000000000200C00000030010008980700086D
:100780000C000020640600004C01000868FF1F00F8
:08079000000000000000000061
:04000005080001915D
:00000001FF
