:020000040800F2
:100000007806002091010008990100089B01000872
:100010009D0100089F010008A101000800000000E8
:10002000000000000000000000000000A301000824
:10003000A501000800000000A7010008A9010008B0
:10004000AB010008AB010008AB010008AB010008E0
:10005000AB010008AB0100084D020008AB0100082D
:10006000AB010008AB010008AB010008AB010008C0
:10007000AB010008AB010008AB010008AB010008B0
:10008000AB010008AB010008AB010008AB010008A0
:10009000AB010008AB010008AB010008AB01000890
:1000A000AB010008AB010008AB010008AB01000880
:1000B00029080008AB010008AB010008AB010008EB
:1000C000AB010008AB010008AB010008AB01000860
:1000D000AB010008AB010008AB010008AB01000850
:1000E000AB010008AB010008AB010008AB01000840
:1000F000AB01000800F002F800F03AF80AA090E81E
:10010000000C82448344AAF10107DA4501D100F0D2
:100110002FF8AFF2090EBAE80F0013F0010F18BF65
:10012000FB1A43F001031847600800008008000034
:10013000103A24BF78C878C1FAD8520724BF30C813
:1001400030C144BF04680C607047000000230024E5
:1001500000250026103A28BF78C1FBD8520728BFD7
:1001600030C148BF0B6070471FB51FBD10B510BD33
:1001700000F031F81146FFF7F7FF00F0F7FB00F051
:100180004FF803B4FFF7F2FF03BC00F057F800008C
:100190000948804709480047FEE7FEE7FEE7FEE71B
:1001A000FEE7FEE7FEE7FEE7FEE7FEE70448054957
:1001B000054A064B70470000C5070008F500000817
:1001C00078000020780600207802002078020020C5
:1001D000704770477047754600F02CF8AE46050032
:1001E0006946534620F00700854618B020B5FFF752
:1001F000DDFFBDE820404FF000064FF000074FF054
:1002000000084FF0000B21F00701AC46ACE8C00934
:10021000ACE8C009ACE8C009ACE8C0098D4670473D
:1002200010B50446AFF300802046BDE81040FFF74C
:10023000A8BF00000048704718000020014918209E
:10024000ABBEFEE7260002007047000010B501209B
:100250001D4909680140814200D100E0002191B3AD
:1002600001201949086000BF1848007840B9080704
:1002700000F07EF91649086001201449087022E058
:100280004FF0804000F074F912490860104800688F
:100290000968884207D90E4800680E490968401A63
:1002A0000D4908600CE000BF4FF08040806A0849AB
:1002B0000968401A074909680844401C0649086053
:1002C00000200249087010BD1404014015000020F0
:1002D00004000020080000200C0000200246106AE4
:1002E00020F001001062CB68486818438B681843FF
:1002F000936923F0FF0343EA10409061106A20F0F5
:100300000A000B6843F00103184310620120704794
:1003100010B50246106A20F010001062CB684868E1
:1003200018438B681843936923F47F4343EA1020F2
:100330009061106A20F0A00010240B6844EA0313B7
:1003400018431062012010BD10B50246106A20F457
:1003500080701062CB68486818438B681843D36973
:1003600023F0FF0343EA1040D061106A20F42060BC
:100370004FF480740B6844EA032318431062012091
:1003800010BD10B50246106A20F480501062CB6890
:10039000486818438B681843D36923F47F4343EAC2
:1003A0001020D061106A20F420404FF480540B6874
:1003B00044EA033318431062012010BD08B5054913
:1003C00009680143034A1160114609680140009120
:1003D00000BF08BD1C38024008B505490968014343
:1003E000034A1160114609680140009100BF08BD31
:1003F00024380240F0B503460A4600240021106864
:1004000090FAA0F0B0FA80F47FE00125A5401068D2
:1004100000EA0501002977D050681D6891FAA1F61D
:10042000B6FA86F677000326BE40B54391FAA1F6E8
:10043000B6FA86F6760000FA06F635431D6000BF70
:100440005068012802D05068022814D190689D6835
:1004500091FAA1F6B6FA86F677000326BE40B543B8
:1004600091FAA1F6B6FA86F6760000FA06F635435A
:100470009D6000BF00BF1069DD6891FAA1F6B6FA71
:1004800086F677000326BE40B54391FAA1F6B6FA88
:1004900086F6760000FA06F63543DD6000BF506848
:1004A000022831D191FAA1F0B0FA80F0082814D2D4
:1004B00050691D6A91FAA1F6B6FA86F6B7000F26C2
:1004C000BE40B54391FAA1F6B6FA86F6B60000FA38
:1004D00006F635431D6200BF16E050695D6A0E0ADC
:1004E00096FAA6F6B6FA86F6B7000F26BE40B543D2
:1004F0000E0A96FAA6F6B6FA86F6B60000FA06F6E0
:1005000035435D6200BF00BF641C1068E0400028F6
:100510007FF47BAF5068012802D05068022809D1CF
:10052000D56810685E68864300FB05F73E435E6051
:1005300000BF00BF0120F0BD4FF47A71B0FBF1F2B3
:10054000521E4FF0E0235A6100229A6105221A617F
:1005500000BF704702480068C0F3400070470000C9
:100560000038024001490860704700000000002088
:100570000146486B70472DE9F04106460C4615468A
:100580000027012C08D0102C0CD0B4F5807F0FD0A0
:10059000B4F5805F18D111E029463046FFF79EFE82
:1005A000074612E029463046FFF7B2FE07460CE048
:1005B00029463046FFF7C8FE074606E02946304682
:1005C000FFF7DFFE074600E000BF00BF3846BDE88A
:1005D000F081000010B5024600231368B2F1804F8D
:1005E00005D01848824202D01748824204D123F035
:1005F00070004C6840EA0403B2F1804F0ED01148FD
:1006000082420BD01048824208D01048824205D066
:100610000F48824202D00F48824204D123F4407036
:10062000CC6840EA040313608868D06200BF088881
:10063000906200BF00BF506940F00100506100BFF0
:10064000012010BD000400400008004000080140E7
:10065000000C01400010014000F01F0201219140F8
:100660004209920002F1E022C2F800117047000036
:1006700010B5002807DA0A07140E054A00F00F0328
:100680001B1FD45403E00A07130E024A135410BD73
:1006900018ED00E000E400E010B500BF4548006838
:1006A00040F004004349086000BF0120096821F0C0
:1006B000010101433F4A116000BF0007FFF78CFEB4
:1006C0004FF400603C49096821F4C05101433A4AA3
:1006D000116000BF00BF00BF37484068C0F3001082
:1006E0000028F8D1FFF736FF60B900BF3348006833
:1006F00040F001003149086000BF00BFFFF72AFF4A
:100700000128FBD100204FF400210A012B4B0833B4
:100710001B6823F47D0440EA010313431C43274B69
:1007200008331C6000BF00BF2448006840F08070A0
:100730002249086000BF00BF00BF20480068C0F326
:1007400040600028F8D000201C490831096821F0D9
:10075000F0010143194A0832116000BF032011461D
:10076000096821F003010143116000BF00BF00BF11
:1007700012480830006800F00C000C28F7D1002067
:100780000E490831096821F4E06101430B4A08323F
:10079000116000BF00BF1146096821F46051014398
:1007A000116000BF0648FFF7C7FE0548FFF7DAFEF5
:1007B00010BD0000003C02400070004000380240C4
:1007C0000048E8011448006840F48070124908604D
:1007D000114808300068114908400F490831086085
:1007E0000D4800680E4908400B490860084600683B
:1007F00020F48020086008480830006820F47D005C
:100800000549083108600020091D08604FF00060AC
:100810000449086070470000003802400CC0FF889F
:10082000FEFFFEEE08ED00E010B500BF4FF0804087
:100830000069C0F3400000283AD000BF6FF002000A
:100840008107086100BF1B48007840B90846FFF7E0
:100850008FFE1949086001201649087022E04FF008
:100860008040FFF785FE1549086013480068096855
:10087000884207D91048006810490968401A104991
:1008800008600CE000BF4FF08040806A0A490968A8
:10089000401A0A4909680844401C094908600020B8
:1008A0000449087000204FF08041486200BF00BF3B
:1008B00010BD0000140000200400002008000020EB
:1008C0000C00002000B58FB00120FFF777FD02205B
:1008D0000A9001200E90099002200D9003200B90A9
:1008E00009A92148FFF786FD00211C20FFF7C0FE63
:1008F0001C20FFF7B1FE0120FFF76EFD00200490E1
:1009000002904FF44860ADF8040042F20F7003907B
:1009100001A94FF08040FFF75DFE4FF48030069054
:100920000020089007900220059005AA01214007A9
:10093000FFF721FE00BF4FF08040C06840F002008A
:100940004FF08041C86000BF0120096A014382075F
:10095000116200BF00BF8007006840F0010011462F
:10096000086000BF0FB000BD00000240FFF794FE1A
:10097000FFF7A8FF05E000BF4FF08040406A014943
:100980000860F8E710000020A80900080000002017
:100990001800000030010008C009000818000020FD
:1009A000600600004C01000868FF1F000000000006
:1009B0000000000000000000000000000000000037
:04000005080001915D
:00000001FF
