:020000040800F2
:10000000A806002091010008890E0008CB03000813
:10001000850E000897020008391000080000000053
:100020000000000000000000000000008D0E00082D
:10003000C9030008000000008B0E00088F0E0008A6
:10004000AB010008AB010008AB010008AB010008E0
:10005000AB010008AB010008AB010008AB010008D0
:10006000AB010008AB010008AB010008AB010008C0
:10007000AB010008AB010008AB010008AB010008B0
:10008000AB010008AB010008AB010008AB010008A0
:10009000AB010008AB010008AB010008AB01000890
:1000A000AB010008AB010008AB010008AB01000880
:1000B000AB010008AB010008AB010008AB01000870
:1000C000AB010008AB010008AB010008AB01000860
:1000D000AB010008AB010008AB010008AB01000850
:1000E000AB010008AB010008AB010008AB01000840
:1000F000AB01000800F002F800F03AF80AA090E81E
:10010000000C82448344AAF10107DA4501D100F0D2
:100110002FF8AFF2090EBAE80F0013F0010F18BF65
:10012000FB1A43F001031847780F0000980F0000F6
:10013000103A24BF78C878C1FAD8520724BF30C813
:1001400030C144BF04680C607047000000230024E5
:1001500000250026103A28BF78C1FBD8520728BFD7
:1001600030C148BF0B6070471FB51FBD10B510BD33
:1001700000F058F81146FFF7F7FF00F05FFF00F0BE
:1001800076F803B4FFF7F2FF03BC00F07DF800003F
:100190000948804709480047FEE7FEE7FEE7FEE71B
:1001A000FEE7FEE7FEE7FEE7FEE7FEE70448054957
:1001B000054A064B70470000D50F0008F5000008FF
:1001C000A8000020A8060020A8020020A802002005
:1001D0004FF0000200B5134694469646203922BFE0
:1001E000A0E80C50A0E80C50B1F12001BFF4F7AF2B
:1001F000090728BFA0E80C5048BF0CC05DF804EB0D
:10020000890028BF40F8042B08BF704748BF20F87A
:10021000022B11F0804F18BF00F8012B7047704778
:1002200070477047754600F02BF8AE4605006946EA
:10023000534620F00700854618B020B5FFF7B6FFFB
:10024000BDE820404FF000064FF000074FF00008D7
:100250004FF0000B21F00701AC46ACE8C009ACE858
:10026000C009ACE8C009ACE8C0098D46704710B5BC
:100270000446AFF300802046BDE81040FFF781BF81
:10028000004870474400002001491820ABBEFEE73B
:1002900026000200704700BFFEE70000F0B50B46E5
:1002A00014460021002500220678342E49D00FDCA8
:1002B000A6F12006142E4FD2DFE806F01F4E4E4E58
:1002C0004E394E4E2426214E4E314E343F4041424F
:1002D0006D2E1BD008DCA6F13506052E3CD2DFE8DA
:1002E00006F03132333435006E2E12D0B02E1BD0D2
:1002F000B52E11D0FF2E2FD11CE0002143E04AF291
:10030000DD0140E028213EE011213CE04BF21021CC
:1003100039E042F2102136E046F2840133E04FF436
:10032000204130E0C0212EE04FF46C412BE04FF42F
:10033000334128E04FF6DD7125E000BF00BF00BF6C
:1003400000BF00BF00BF00BF00BF00BF0678303E47
:100350001A4F37F8161016E006785B2E07DA067883
:10036000402E04DD0678413E154F37F8161006780A
:100370007B2E07DA0678602E04DD0678613E104F8A
:1003800037F8161000BF00BF012B01D141F0020168
:10039000012C01D141F020010C2500220AE041FA94
:1003A00005F606F00F06074F47F822602E1FF5B23C
:1003B000561CF2B2042AF2DBF0BD00008C100008DB
:1003C0005810000834000020704700BFFEE710B549
:1003D00000F08CFC10BD00002DE9F04105460E46F2
:1003E00017461C464FF000083A4631462846FFF7AC
:1003F00055FF072C7DD2DFE804F07C0469D8FDFCB2
:10040000FB00FE480078C0F34001FC48006861F33F
:100410005F00FA490978C1F3800140EA0170F749A9
:100420000978C1F3C00140EA41784246F44900200E
:1004300000F0E6FCF1480079C0F34001EF48406865
:1004400061F35F00ED490979C1F3800140EA017071
:10045000EA490979C1F3C00140EA41784246E849D6
:10046000022000F0CDFCE548007AC0F34001E348EB
:10047000806861F35F00E149097AC1F3800140EAD5
:100480000170DE49097AC1F3C00140EA4178424671
:10049000DB49042000F0B4FCD848007BC0F34001E5
:1004A000D648C06861F35F00D449097BC1F380017D
:1004B00040EA0170D149097BC1F3C00140EA4178AB
:1004C0004246CF49062000F09BFC62E2CB48007810
:1004D000C007400FC9490978C1F3400140EAC11083
:1004E000C6490978C1F3800140EA8160C3490978AF
:1004F00000E04DE2C1F3C00140EAC1684246C14993
:10050000002000F07DFCBD480079C007400FBB49CA
:100510000979C1F3400140EAC110B8490979C1F332
:10052000800140EA8160B5490979C1F3C00140EA20
:10053000C1684246B349022000F062FCAF48007A2D
:10054000C007400FAD49097AC1F3400140EAC1102C
:10055000AA49097AC1F3800140EA8160A749097A72
:10056000C1F3C00140EAC1684246A649042000F038
:1005700047FCA248007BC007400FA049097BC1F39C
:10058000400140EAC1109D49097BC1F3800140EA66
:1005900081609A49097BC1F3C00140EAC1684246C3
:1005A0009849062000F02CFCF3E194480078C0073D
:1005B000C00D92490978C1F3400140EA41208F49BA
:1005C0000978C1F3800140EA01608C490978C1F3E0
:1005D000C00140EA416842466FF00321002000F06C
:1005E0000FFC86480079C007C00D8449097902E0F4
:1005F0005DE1CCE04EE0C1F3400140EA41207F499B
:100600000979C1F3800140EA01607C490979C1F3AD
:10061000C00140EA416842466FF00321022000F029
:10062000EFFB7648007AC007C00D7449097AC1F320
:10063000400140EA41207149097AC1F3800140EA52
:1006400001606E49097AC1F3C00140EA416842463F
:100650006FF00321042000F0D3FB6848007BC00743
:10066000C00D6649097BC1F3400140EA412063495E
:10067000097BC1F3800140EA01606049097BC1F355
:10068000C00140EA416842466FF00321062000F0B5
:10069000B7FB7EE159480078C007400D57490978FB
:1006A000C1F3C00140EA415842465749002000F0DA
:1006B000A7FB52480078C0F34000C0024F490978B8
:1006C000C1F3800140EA015842465049002000F041
:1006D00097FB4A480079C007400D48490979C1F3A2
:1006E000C00140EA415842464749022000F088FBD9
:1006F00042480079C0F34000C00240490979C1F383
:10070000800140EA015842464049022000F078FB4F
:100710003A48007AC007400D3849097AC1F3C00150
:1007200040EA415842463849042000F069FB33480A
:10073000007AC0F34000C0023049097AC1F3800159
:1007400040EA015842463149042000F059FB2B4849
:10075000007BC007400D2949097BC1F3C00140EA75
:10076000415842462849062000F04AFB2348007BB6
:10077000C0F34000C0022149097BC1F3800140EA77
:10078000015842462149062000F03AFB01E11B488E
:100790000078C0F34000400318490978C1F3800194
:1007A00040EA814842466FF48421002000F028FB93
:1007B00012480078C007C00C10490978C1F3C00185
:1007C00040EAC14842466FF40121002000F018FBC6
:1007D0000A480079C0F34000400308490979C1F391
:1007E000800140EA814842466FF48421022000F0F3
:1007F00007FB02480079C007C00C09E03400002064
:10080000FCFFFFCF7BFFFFF3FFFBDFFFFFF7EFFFF7
:1008100062490979C1F3C00140EAC14842466FF418
:100820000121022000F0ECFA5C48007AC0F340009D
:1008300040035A49097AC1F3800140EA814842469F
:100840006FF48421042000F0DBFA5448007AC007DA
:10085000C00C5249097AC1F3C00140EAC14842467E
:100860006FF40121042000F0CBFA4C48007BC0F368
:10087000400040034949097BC1F3800140EA8148B7
:1008800042466FF48421062000F0BAFA4348007B08
:10089000C007C00C4149097BC1F3C00140EAC1480F
:1008A00042466FF40121062000F0AAFA71E03B48AD
:1008B0000078C007400C39490978C1F3400140EA8B
:1008C000C13036490978C1F3800140EA41403349DB
:1008D0000978C1F3C00140EA014842466FF4703123
:1008E000002000F08DFA2D480079C007400C2B49FC
:1008F0000979C1F3400140EAC13028490979C1F3BF
:10090000800140EA414025490979C1F3C00140EA2C
:10091000014842466FF47031022000F071FA1F481E
:10092000007AC007400C1D49097AC1F3400140EA32
:10093000C1301A49097AC1F3800140EA41401749A0
:10094000097AC1F3C00140EA014842466FF47031B0
:10095000042000F055FA1148007BC007400C0F49F5
:10096000097BC1F3400140EAC1300C49097BC1F366
:10097000800140EA41400949097BC1F3C00140EAD6
:10098000014842466FF47031062000F039FA00E069
:1009900000BF00BF00F01EFABDE8F0813400002067
:1009A00070B50546012408E023460022114628467A
:1009B00000F03AF86D1C601CC4B2287808B1012020
:1009C00000E00020062C01DC012100E000210840AD
:1009D0000028E9D100F0FEF970BD000010B500203C
:1009E000104908604FF4701048600C208860402067
:1009F000C860002008614FF4A05048610020886161
:100A00004020C861002048624FF480408862802006
:100A1000C86200F017F8034800F082F9FFF7D7FC2E
:100A200010BD0000040000202DE9F04104460D46F1
:100A300016461F463B46324629462046FFF7CCFC69
:100A4000BDE8F08100B587B0182101A8FFF7C0FB11
:100A50004FF0805000F08CF800BF3348006840F43D
:100A600080703149086000BF00F0EAF960BB00BF48
:100A70002E48006840F400002C49086000BF00BF09
:100A80000846006820F40000086000BF00BF084668
:100A9000006840F48070086000BF00BF00F0D0F92B
:100AA0000128FBD100042149096821F440310143A8
:100AB0001E4A116000BF00BF1046006840F480006D
:100AC0001146086000BF00BF012000F043F802207B
:100AD00000F040F8042000F03DF848F20E7001905C
:100AE0000220029000200590032003900B20069026
:100AF00001A90F4800F04AF84FF63870019001A99B
:100B00000C4800F043F840F6CF70019001A90A4864
:100B100000F03CF8022000F0A1F94FF4007000F062
:100B200027F807B000BD00000070004034380240D4
:100B300000000240000402400008024000BF0448D8
:100B40000068C0F340100028F9D001207047000071
:100B50000824004008B5054909680143034A1160AB
:100B6000114609680140009100BF08BD1C380240D1
:100B700008B5054909680143034A1160114609682F
:100B80000140009100BF08BD24380240F0B5034683
:100B90000A4600240021106890FAA0F0B0FA80F410
:100BA0007FE00125A540106800EA0501002977D003
:100BB00050681D6891FAA1F6B6FA86F6770003260A
:100BC000BE40B54391FAA1F6B6FA86F6760000FA71
:100BD00006F635431D6000BF5068012802D05068FA
:100BE000022814D190689D6891FAA1F6B6FA86F6AB
:100BF00077000326BE40B54391FAA1F6B6FA86F611
:100C0000760000FA06F635439D6000BF00BF10690C
:100C1000DD6891FAA1F6B6FA86F677000326BE40A3
:100C2000B54391FAA1F6B6FA86F6760000FA06F612
:100C30003543DD6000BF5068022831D191FAA1F040
:100C4000B0FA80F0082814D250691D6A91FAA1F612
:100C5000B6FA86F6B7000F26BE40B54391FAA1F664
:100C6000B6FA86F6B60000FA06F635431D6200BFF6
:100C700016E050695D6A0E0A96FAA6F6B6FA86F68E
:100C8000B7000F26BE40B5430E0A96FAA6F6B6FA8E
:100C900086F6B60000FA06F635435D6200BF00BF77
:100CA000641C1068E04000287FF47BAF5068012886
:100CB00002D05068022809D1D56810685E68864362
:100CC00000FB05F73E435E6000BF00BF0120F0BDA2
:100CD0004FF47A71B0FBF1F2521E4FF0E0235A61EB
:100CE00000229A6105221A6100BF704700B50022F8
:100CF00000BF0A480068C0F380000028F9D1002234
:100D000005E0002105480C3040F82210521C0F2A43
:100D1000F7D900F05FF8012000BD00000824004072
:100D200010B50146002200BF05E00023274840F827
:100D30002230501CC2B20F2AF7D924480C38006860
:100D400040F00400214B0C3B1860D1E9000318432C
:100D50004B6A18438B6A18438B691843CB69184355
:100D60004B6918430B6A1843184B103B1B68184C0F
:100D700023401843154B103B1860FFF7DFFED1E905
:100D8000020318430B691843CB6A18430F4B143BFB
:100D90001B6823F0FE0318430C4B143B18601846E5
:100DA000006840F00100186000BF08480C38006877
:100DB00000F001000028F8D000BF04480C3800689B
:100DC000C0F300100028F8D0012010BD142400400A
:100DD0000F0000FC082009490860081F006840F067
:100DE0000400091F086000BF0448001F0068C0F32A
:100DF000C0000028F8D00120704700000C240040FB
:100E000010B5034600BF09480068C0F38000002801
:100E1000F9D106480C3050F82300CC43A0431043CE
:100E2000024C0C3444F82300012010BD082400407B
:100E300002480068C0F340007047000000380240DC
:100E400002480068C0F34020704700003438024078
:100E500001490860704700000000002008B54FF00D
:100E6000E0210969009100BF411C01B1401C06E06E
:100E70004FF0E021096901F4803101B1401E0028E2
:100E8000F6D108BD00BFFEE7704770477047704756
:100E900038B500BF4B48006840F00400494908607D
:100EA00000BF0120096821F001010143454A11609A
:100EB00000BF0007444909680143434A11601146D5
:100EC00009680140009100BF00BF40143F49096814
:100ED00021F4C05101433D4A116000BF00BF00BF73
:100EE0003A484068C0F300100028F8D1FFF7A0FF8F
:100EF00070B900BF34482438006840F0010032491E
:100F00002439086000BF00BFFFF792FF0128FBD122
:100F100000204FF400210A012B4B1C3B1B6823F4DB
:100F20007D0440EA010313431C43274B1C3B1C6018
:100F300000BF00BF24482438006840F08070224978
:100F40002439086000BF00BF00BF1F482438006874
:100F5000C0F340600028F7D000201B491C39096805
:100F600021F0F0010143184A1C3A116000BF032030
:100F70001146096821F003010143116000BF00BF61
:100F800000BF11481C38006800F00C000C28F7D195
:100F900000200D491C39096821F4E06101430A4A27
:100FA0001C3A116000BF00BF1146096821F460516E
:100FB0000143116000BF0648FFF78AFE0448FFF7AF
:100FC00047FF38BD003C024024380240007000401A
:100FD0000048E8011448006840F480701249086035
:100FE000114808300068114908400F49083108606D
:100FF0000D4800680E4908400B4908600846006823
:1010000020F48020086008480830006820F47D0043
:101010000549083108600020091D08604FF0006094
:101020000449086070470000003802400CC0FF8887
:10103000FEFFFEEE08ED00E000BFFEE7FFF728FF31
:10104000FFF7CCFC02A0FFF7ABFC00BFFEE70000FF
:10105000312B313D3200000000FE1467001D1447A3
:10106000009D009C003F00FA1400005341980019B5
:10107000485A095A005F00FC015F01FC00AF1404EC
:10108000005BC018815AC9005800C005005F0042CB
:1010900000F5006700EA00AF00BF004600FF00EF68
:1010A000C01000080000002004000000300100080B
:1010B000C410000804000020A40600004C01000831
:0410C00068FF1F00A6
:04000005080001915D
:00000001FF
