:020000040800F2
:10000000A806002091010008010800089D020008D0
:10001000FD07000897020008B10900080000000071
:1000200000000000000000000000000005080008BB
:100030009B020008000000000308000807080008F1
:10004000AB010008AB010008AB010008AB010008E0
:10005000AB010008AB010008AB010008AB010008D0
:10006000AB010008AB010008AB010008AB010008C0
:10007000AB010008AB010008AB010008AB010008B0
:10008000AB010008AB010008AB010008AB010008A0
:10009000AB010008AB010008AB010008AB01000890
:1000A000AB010008AB010008AB010008AB01000880
:1000B000AB010008AB010008AB010008AB01000870
:1000C000AB010008AB010008AB010008AB01000860
:1000D000AB010008AB010008AB010008AB01000850
:1000E000AB010008AB010008AB010008AB01000840
:1000F000AB01000800F002F800F03AF80AA090E81E
:10010000000C82448344AAF10107DA4501D100F0D2
:100110002FF8AFF2090EBAE80F0013F0010F18BF65
:10012000FB1A43F001031847B0080000D008000094
:10013000103A24BF78C878C1FAD8520724BF30C813
:1001400030C144BF04680C607047000000230024E5
:1001500000250026103A28BF78C1FBD8520728BFD7
:1001600030C148BF0B6070471FB51FBD10B510BD33
:1001700000F058F81146FFF7F7FF00F01BFC00F005
:1001800076F803B4FFF7F2FF03BC00F07DF800003F
:100190000948804709480047FEE7FEE7FEE7FEE71B
:1001A000FEE7FEE7FEE7FEE7FEE7FEE70448054957
:1001B000054A064B704700004D090008F50000088D
:1001C000A8000020A8060020A8020020A802002005
:1001D0004FF0000200B5134694469646203922BFE0
:1001E000A0E80C50A0E80C50B1F12001BFF4F7AF2B
:1001F000090728BFA0E80C5048BF0CC05DF804EB0D
:10020000890028BF40F8042B08BF704748BF20F87A
:10021000022B11F0804F18BF00F8012B7047704778
:1002200070477047754600F02BF8AE4605006946EA
:10023000534620F00700854618B020B5FFF7B6FFFB
:10024000BDE820404FF000064FF000074FF00008D7
:100250004FF0000B21F00701AC46ACE8C009ACE858
:10026000C009ACE8C009ACE8C0098D46704710B5BC
:100270000446AFF300802046BDE81040FFF781BF81
:10028000004870474800002001491820ABBEFEE737
:1002900026000200704700BFFEE7704700BFFEE780
:1002A00010B50446052C58D2DFE804F003132436B9
:1002B000470000226FF42041062000F05DFA002282
:1002C0006FF42041042000F057FA002025490870FF
:1002D00044E04FF400426FF42041062000F04CFA55
:1002E00000226FF42041042000F046FA01201D494D
:1002F000087033E04FF400426FF42041062000F014
:100300003BFA4FF400426FF42041042000F034FA2D
:1003100002201449087021E04FF42042D143062006
:1003200000F02AFA4FF400426FF42041042000F05C
:1003300023FA03200B49087010E04FF42042D14308
:10034000062000F019FA4FF42042D143042000F0B7
:1003500013FA04200349087000E000BF00BF00F05A
:10036000F5F910BD0500002010B500F07BF910BDB7
:1003700010B50020104908604FF4701048600C2040
:1003800088604020C860002008614FF4A050486198
:10039000002088614020C861002048624FF48040FE
:1003A00088628020C86200F009F8034800F074F900
:1003B000FFF7DAFF10BD00000800002000B587B08D
:1003C000182101A8FFF704FF4FF0805000F08CF8CF
:1003D00000BF3348006840F480703149086000BFB6
:1003E00000F0EAF960BB00BF2E48006840F400004E
:1003F0002C49086000BF00BF0846006820F40000D8
:10040000086000BF00BF0846006840F480700860C4
:1004100000BF00BF00F0D0F90128FBD10004214942
:10042000096821F4403101431E4A116000BF00BF3A
:100430001046006840F480001146086000BF00BF0D
:10044000012000F043F8022000F040F8042000F002
:100450003DF848F20E7001900220029000200590B5
:10046000032003900B20069001A90F4800F04AF8E2
:100470004FF63870019001A90C4800F043F840F69F
:10048000CF70019001A90A4800F03CF8022000F06A
:10049000A1F94FF4007000F027F807B000BD00008C
:1004A0000070004034380240000002400004024066
:1004B0000008024000BF04480068C0F34010002854
:1004C000F9D00120704700000824004008B5054914
:1004D00009680143034A116011460968014000910F
:1004E00000BF08BD1C38024008B505490968014332
:1004F000034A1160114609680140009100BF08BD20
:1005000024380240F0B503460A4600240021106852
:1005100090FAA0F0B0FA80F47FE00125A5401068C1
:1005200000EA0501002977D050681D6891FAA1F60C
:10053000B6FA86F677000326BE40B54391FAA1F6D7
:10054000B6FA86F6760000FA06F635431D6000BF5F
:100550005068012802D05068022814D190689D6824
:1005600091FAA1F6B6FA86F677000326BE40B543A7
:1005700091FAA1F6B6FA86F6760000FA06F6354349
:100580009D6000BF00BF1069DD6891FAA1F6B6FA60
:1005900086F677000326BE40B54391FAA1F6B6FA77
:1005A00086F6760000FA06F63543DD6000BF506837
:1005B000022831D191FAA1F0B0FA80F0082814D2C3
:1005C00050691D6A91FAA1F6B6FA86F6B7000F26B1
:1005D000BE40B54391FAA1F6B6FA86F6B60000FA27
:1005E00006F635431D6200BF16E050695D6A0E0ACB
:1005F00096FAA6F6B6FA86F6B7000F26BE40B543C1
:100600000E0A96FAA6F6B6FA86F6B60000FA06F6CE
:1006100035435D6200BF00BF641C1068E0400028E5
:100620007FF47BAF5068012802D05068022809D1BE
:10063000D56810685E68864300FB05F73E435E6040
:1006400000BF00BF0120F0BD4FF47A71B0FBF1F2A2
:10065000521E4FF0E0235A6100229A6105221A616E
:1006600000BF704700B5002200BF0A480068C0F311
:1006700080000028F9D1002205E0002105480C3057
:1006800040F82210521C0F2AF7D900F05FF8012021
:1006900000BD00000824004010B50146002200BF44
:1006A00005E00023274840F82230501CC2B20F2A30
:1006B000F7D924480C38006840F00400214B0C3B6B
:1006C0001860D1E9000318434B6A18438B6A18433A
:1006D0008B691843CB6918434B6918430B6A18435D
:1006E000184B103B1B68184C23401843154B103B0C
:1006F0001860FFF7DFFED1E9020318430B691843C6
:10070000CB6A18430F4B143B1B6823F0FE031843BE
:100710000C4B143B18601846006840F0010018604C
:1007200000BF08480C38006800F001000028F8D02D
:1007300000BF04480C380068C0F300100028F8D04F
:10074000012010BD142400400F0000FC08200949BE
:100750000860081F006840F00400091F086000BF1F
:100760000448001F0068C0F3C0000028F8D0012032
:10077000704700000C24004010B5034600BF094834
:100780000068C0F380000028F9D106480C3050F80A
:100790002300CC43A0431043024C0C3444F8230004
:1007A000012010BD0824004002480068C0F340004A
:1007B000704700000038024002480068C0F3402043
:1007C000704700003438024001490860704700005B
:1007D0000000002008B54FF0E0210969009100BF3A
:1007E000411C01B1401C06E04FF0E021096901F411
:1007F000803101B1401E0028F6D108BD00BFFEE7E0
:10080000704770477047704738B500BF4B48006865
:1008100040F004004949086000BF0120096821F048
:1008200001010143454A116000BF000744490968BE
:100830000143434A1160114609680140009100BF1D
:1008400000BF40143F49096821F4C05101433D4AAB
:10085000116000BF00BF00BF3A484068C0F30010FD
:100860000028F8D1FFF7A0FF70B900BF3448243842
:10087000006840F0010032492439086000BF00BF21
:10088000FFF792FF0128FBD100204FF400210A015D
:100890002B4B1C3B1B6823F47D0440EA01031343EC
:1008A0001C43274B1C3B1C6000BF00BF244824385E
:1008B000006840F0807022492439086000BF00BF02
:1008C00000BF1F4824380068C0F340600028F7D0FC
:1008D00000201B491C39096821F0F0010143184A26
:1008E0001C3A116000BF03201146096821F0030182
:1008F0000143116000BF00BF00BF11481C380068F1
:1009000000F00C000C28F7D100200D491C390968B3
:1009100021F4E06101430A4A1C3A116000BF00BFA4
:100920001146096821F460510143116000BF064877
:10093000FFF78AFE0448FFF747FF38BD003C02403E
:1009400024380240007000400048E8011448006864
:1009500040F480701249086011480830006811495D
:1009600008400F49083108600D4800680E490840EA
:100970000B4908600846006820F480200860084899
:100980000830006820F47D00054908310860002027
:10099000091D08604FF000600449086070470000BE
:1009A000003802400CC0FF88FEFFFEEE08ED00E0BC
:1009B00000BFFEE7FFF728FFFFF7DAFC0120FFF793
:1009C0006FFC0220FFF76CFC0420FFF769FC082095
:1009D000FFF766FC00BFFEE7F809000800000020F2
:1009E0000800000030010008000A0008080000208C
:1009F000A00600004C01000868FF1F000004000072
:04000005080001915D
:00000001FF
