:020000040800F2
:100000007007002091010008990100089B01000879
:100010009D0100089F010008A101000800000000E8
:10002000000000000000000000000000A301000824
:10003000A501000800000000A7010008A9010008B0
:10004000AB010008AB010008AB010008AB010008E0
:10005000AB010008AB010008AB010008AB010008D0
:10006000AB010008AB010008AB010008AB010008C0
:10007000AB010008AB010008AB010008AB010008B0
:10008000AB010008AB010008AB010008AB010008A0
:10009000AB010008AB010008AB010008AB01000890
:1000A000AB010008AB010008AB010008AB01000880
:1000B000AB010008AB010008AD080008AB01000867
:1000C000AB010008AB010008AB010008AB01000860
:1000D000AB010008AB010008AB010008AB01000850
:1000E000AB010008AB010008AB010008AB01000840
:1000F000AB01000800F002F800F03AF80AA090E81E
:10010000000C82448344AAF10107DA4501D100F0D2
:100110002FF8AFF2090EBAE80F0013F0010F18BF65
:10012000FB1A43F001031847EC0900000C0A000019
:10013000103A24BF78C878C1FAD8520724BF30C813
:1001400030C144BF04680C607047000000230024E5
:1001500000250026103A28BF78C1FBD8520728BFD7
:1001600030C148BF0B6070471FB51FBD10B510BD33
:1001700000F031F81146FFF7F7FF00F03BFC00F00C
:100180004FF803B4FFF7F2FF03BC00F057F800008C
:100190000948804709480047FEE7FEE7FEE7FEE71B
:1001A000FEE7FEE7FEE7FEE7FEE7FEE70448054957
:1001B000054A064B7047000049080008F500000892
:1001C00070010020700700207003002070030020E1
:1001D000704770477047754600F02CF8AE46050032
:1001E0006946534620F00700854618B020B5FFF752
:1001F000DDFFBDE820404FF000064FF000074FF054
:1002000000084FF0000B21F00701AC46ACE8C00934
:10021000ACE8C009ACE8C009ACE8C0098D4670473D
:1002200010B50446AFF300802046BDE81040FFF74C
:10023000A8BF0000004870470C01002001491820A9
:10024000ABBEFEE7260002007047000001463C20DE
:1002500091FBF0F04FF4FA425043024A1268B2FBAD
:10026000F0F0704700000020002014E00B4951F826
:1002700020100B4A42F820100A49095C8906090E31
:10028000094A11540022064B411C43F82120012247
:10029000054B5A54C8B23428E8D37047900A000876
:1002A00008000020F80A0008D800002000BF054917
:1002B000C86200BF00BF0A46D26A5108014A916372
:1002C00000BF70470008004010B5022000F02EF873
:1002D00001224021144800F0E7F840200021124A92
:1002E0005268824300FB01F31A430F4B5A6000BF70
:1002F00000BF1A46D26890FAA0F3B3FA83F35C0009
:100300000323A3409A4390FAA0F3B3FA83F35B006C
:1003100001FA03F31A43044BDA6000BF00BF194629
:10032000886100BF10BD00000004024008B5054907
:1003300009680143034A11601146096801400091B0
:1003400000BF08BD1C38024008B5054909680143D3
:10035000034A1160114609680140009100BF08BDC1
:1003600024380240F0B503460A46002400211068F4
:1003700090FAA0F0B0FA80F47FE00125A540106863
:1003800000EA0501002977D050681D6891FAA1F6AE
:10039000B6FA86F677000326BE40B54391FAA1F679
:1003A000B6FA86F6760000FA06F635431D6000BF01
:1003B0005068012802D05068022814D190689D68C6
:1003C00091FAA1F6B6FA86F677000326BE40B54349
:1003D00091FAA1F6B6FA86F6760000FA06F63543EB
:1003E0009D6000BF00BF1069DD6891FAA1F6B6FA02
:1003F00086F677000326BE40B54391FAA1F6B6FA19
:1004000086F6760000FA06F63543DD6000BF5068D8
:10041000022831D191FAA1F0B0FA80F0082814D264
:1004200050691D6A91FAA1F6B6FA86F6B7000F2652
:10043000BE40B54391FAA1F6B6FA86F6B60000FAC8
:1004400006F635431D6200BF16E050695D6A0E0A6C
:1004500096FAA6F6B6FA86F6B7000F26BE40B54362
:100460000E0A96FAA6F6B6FA86F6B60000FA06F670
:1004700035435D6200BF00BF641C1068E040002887
:100480007FF47BAF5068012802D05068022809D160
:10049000D56810685E68864300FB05F73E435E60E2
:1004A00000BF00BF0120F0BD30B5036891FAA1F490
:1004B000B4FA84F465000324AC40A34391FAA1F498
:1004C000B4FA84F4640002FA04F42343036030BDF8
:1004D0004FF47A71B0FBF1F2521E4FF0E0235A61F3
:1004E00000229A6105221A6100BF70470248006825
:1004F000C0F3400070470000003802400149086026
:100500007047000000000020016841F00101016017
:100510007047000010B5024600231368B2F1804F07
:1005200005D01848824202D01748824204D123F0F5
:1005300070004C6840EA0403B2F1804F0ED01148BD
:1005400082420BD01048824208D01048824205D027
:100550000F48824202D00F48824204D123F44070F7
:10056000CC6840EA040313608868D06200BF088842
:10057000906200BF00BF506940F00100506100BFB1
:10058000012010BD000400400008004000080140A8
:10059000000C0140001001402DE9F04106460C46D8
:1005A00015460027012C08D0102C0CD0B4F5807F04
:1005B0000FD0B4F5805F18D111E02946304600F025
:1005C00019F8074612E02946304600F038F8074689
:1005D0000CE02946304600F057F8074606E0294669
:1005E000304600F076F8074600E000BF00BF38460E
:1005F000BDE8F08170B50246002300240025106A92
:1006000020F001001062146A5568936923F0030317
:1006100023F070000E6840EA060324F00200CE6862
:1006200040EA060424F001004E6840EA06045560E2
:1006300093618868506300BF1462012070BD70B57B
:100640000246002300240025106A20F010001062EA
:10065000146A5568936923F4407323F4E0400E68EC
:1006600040EA062324F02000CE6840EA061424F075
:1006700010004E6840EA06145560936188689063E4
:1006800000BF1462012070BD70B502460023002433
:100690000025106A20F480701062146A5568D369CE
:1006A00023F0030323F070000E6840EA060324F4ED
:1006B0000070CE6840EA062424F480704E6840EA58
:1006C00006245560D3618868D06300BF146201209E
:1006D00070BD70B50246002300240025106A20F486
:1006E00080501062146A5568D36923F4407323F470
:1006F000E0400E6840EA062324F40050CE6840EA49
:10070000063424F480504E6840EA06345560D361C4
:100710008868106400BF1462012070BD10B500BF6E
:100720004548006840F004004349086000BF0120CC
:10073000096821F0010101433F4A116000BF000731
:10074000FFF702FE4FF400603C49096821F4C051F4
:1007500001433A4A116000BF00BF00BF37484068FC
:10076000C0F300100028F8D1FFF7C0FE60B900BF49
:100770003348006840F001003149086000BF00BF05
:10078000FFF7B4FE0128FBD100204FF400210A013D
:100790002B4B08331B6823F47D0440EA0103134309
:1007A0001C43274B08331C6000BF00BF244800686F
:1007B00040F080702249086000BF00BF00BF2048A1
:1007C0000068C0F340600028F8D000201C490831C0
:1007D000096821F0F0010143194A0832116000BF95
:1007E00003201146096821F003010143116000BF95
:1007F00000BF00BF12480830006800F00C000C2851
:10080000F7D100200E490831096821F4E061014365
:100810000B4A0832116000BF00BF1146096821F47D
:1008200060510143116000BF0648FFF751FE0548C3
:10083000FFF764FE10BD0000003C02400070004065
:10084000003802400048E8011448006840F4807015
:1008500012490860114808300068114908400F49E2
:10086000083108600D4800680E4908400B490860CF
:100870000846006820F480200860084808300068B6
:1008800020F47D000549083108600020091D08603A
:100890004FF00060044908607047000000380240D3
:1008A0000CC0FF88FEFFFEEE08ED00E000BF06482A
:1008B0000069C0F3800030B100BF6FF0040002494E
:1008C000086100BF00BF7047000800401FB5044624
:1008D0000120FFF739FD2046FFF7B8FC02904FF4E6
:1008E000FA40ADF8000000200190039069464FF0F7
:1008F0008040FFF70FFE4FF08040FFF705FE1FBD61
:1009000010B588B000F05EF80420FFF71DFD42F638
:10091000667006900220ADF8100000200590079048
:1009200004A92548FFF7F6FD1E200121002807DA5B
:100930000A07140E214A00F00F031B1FD45403E0D2
:100940000A07130E1E4A135400BF1E2001218140C6
:100950004209920002F1E022C2F8001100BF00201B
:10096000019060200090002003900698800802907B
:100970006A4610211048FFF70FFE10200E49096A41
:1009800001430D4A116200BF1046FFF7BDFD00BFD5
:100990000948C06840F004000749C86000BF002053
:1009A000486300BF00BF0846406940F0010048614D
:1009B00000BF08B010BD00000008004018ED00E0C6
:1009C00000E400E000B587B00220FFF7AFFC022092
:1009D0000290069080200190002004900220059053
:1009E0000320039001A90248FFF7BCFC07B000BD3B
:1009F00000040240FFF792FEFFF782FFD220FFF7CC
:100A000065FFFFF761FCFFF72FFC29E000BF4FF007
:100A10008040006900F0010010B300BF6FF00100DA
:100A20004FF08041086100BF0E480078401C0D491E
:100A300008700D480D490978405C0A4909788842D8
:100A40000EDC0020074908700949084A127851F85D
:100A50002200FFF72BFC05480078401C0349087072
:100A6000D4E7000004000020D8000020050000208A
:100A7000080000200000000004000400000800003E
:100A80000008000008000000080000040008000C36
:100A9000662F000033350000B83B000033350000FE
:100AA000662F0000662F0000662F0000333500001F
:100AB000333500003335000033350000DB270000FC
:100AC000DB270000662F000033350000B83B000034
:100AD00033350000662F0000662F0000662F0000EF
:100AE000333500003335000033350000662F000039
:100AF00033350000B83B0000010101010101020192
:100B000001010201040101010101010201010101D0
:100B100004000000340B0008000000200800000062
:100B2000300100083C0B00080800002068070000A6
:0C0B30004C01000868FF1F0000000000DE
:04000005080001915D
:00000001FF
