:020000040800F2
:1000000068060020910100089102000851020008D2
:100010008D0200084B0200084104000800000000A7
:100020000000000000000000000000009502000831
:100030004F02000800000000930200089702000829
:10004000AB010008AB010008AB010008AB010008E0
:10005000AB010008AB010008AB010008AB010008D0
:10006000AB010008AB010008AB010008AB010008C0
:10007000AB010008AB010008AB010008AB010008B0
:10008000AB010008AB010008AB010008AB010008A0
:10009000AB010008AB010008AB010008AB01000890
:1000A000AB010008AB010008AB010008AB01000880
:1000B000AB010008AB010008AB010008AB01000870
:1000C000AB010008AB010008AB010008AB01000860
:1000D000AB010008AB010008AB010008AB01000850
:1000E000AB010008AB010008AB010008AB01000840
:1000F000AB01000800F002F800F03AF80AA090E81E
:10010000000C82448344AAF10107DA4501D100F0D2
:100110002FF8AFF2090EBAE80F0013F0010F18BF65
:10012000FB1A43F00103184778030000980300000E
:10013000103A24BF78C878C1FAD8520724BF30C813
:1001400030C144BF04680C607047000000230024E5
:1001500000250026103A28BF78C1FBD8520728BFD7
:1001600030C148BF0B6070471FB51FBD10B510BD33
:1001700000F031F81146FFF7F7FF00F063F900F0E7
:100180004FF803B4FFF7F2FF03BC00F057F800008C
:100190000948804709480047FEE7FEE7FEE7FEE71B
:1001A000FEE7FEE7FEE7FEE7FEE7FEE70448054957
:1001B000054A064B70470000DD030008F500000803
:1001C0006800002068060020680200206802002005
:1001D000704770477047754600F02CF8AE46050032
:1001E0006946534620F00700854618B020B5FFF752
:1001F000DDFFBDE820404FF000064FF000074FF054
:1002000000084FF0000B21F00701AC46ACE8C00934
:10021000ACE8C009ACE8C009ACE8C0098D4670473D
:1002200010B50446AFF300802046BDE81040FFF74C
:10023000A8BF0000004870470400002001491820B2
:10024000ABBEFEE726000200704700BFFEE7704726
:1002500000BFFEE74FF47A71B0FBF1F2521E4FF08F
:10026000E0235A6100229A6105221A6100BF70479B
:1002700002480068C0F340007047000000380240A8
:1002800001490860704700000000002000BFFEE741
:10029000704770477047704738B500BF4B480068DB
:1002A00040F004004949086000BF0120096821F0BE
:1002B00001010143454A116000BF00074449096834
:1002C0000143434A1160114609680140009100BF93
:1002D00000BF40143F49096821F4C05101433D4A21
:1002E000116000BF00BF00BF3A484068C0F3001073
:1002F0000028F8D1FFF7BCFF70B900BF344824389C
:10030000006840F0010032492439086000BF00BF96
:10031000FFF7AEFF0128FBD100204FF400210A01B6
:100320002B4B1C3B1B6823F47D0440EA0103134361
:100330001C43274B1C3B1C6000BF00BF24482438D3
:10034000006840F0807022492439086000BF00BF77
:1003500000BF1F4824380068C0F340600028F7D071
:1003600000201B491C39096821F0F0010143184A9B
:100370001C3A116000BF03201146096821F00301F7
:100380000143116000BF00BF00BF11481C38006866
:1003900000F00C000C28F7D100200D491C39096829
:1003A00021F4E06101430A4A1C3A116000BF00BF1A
:1003B0001146096821F460510143116000BF0648ED
:1003C000FFF748FF0448FFF75BFF38BD003C0240E1
:1003D00024380240007000400048E80114480068DA
:1003E00040F48070124908601148083000681149D3
:1003F00008400F49083108600D4800680E49084060
:100400000B4908600846006820F48020086008480E
:100410000830006820F47D0005490831086000209C
:10042000091D08604FF00060044908607047000033
:10043000003802400CC0FF88FEFFFEEE08ED00E031
:1004400000BFFEE7FFF728FF1348006840F00200F6
:10045000114908601148006840F480500F49086055
:10046000081D006860F04000091D0860081D006854
:1004700040F48050091D0860081D006860F4405079
:10048000091D086005481830006840F04000034925
:100490001831086000BFFEE71C380240000402402B
:1004A000C004000800000020040000003001000823
:1004B000C404000804000020640600004C01000889
:0404C00068FF1F00B2
:04000005080001915D
:00000001FF
